{
  "_format": "hh-sol-artifact-1",
  "contractName": "ChainBattles",
  "sourceName": "contracts/ChainBattles.sol",
  "abi": [
    {
      "inputs": [],
      "stateMutability": "nonpayable",
      "type": "constructor"
    },
    {
      "anonymous": false,
      "inputs": [
        {
          "indexed": true,
          "internalType": "address",
          "name": "owner",
          "type": "address"
        },
        {
          "indexed": true,
          "internalType": "address",
          "name": "approved",
          "type": "address"
        },
        {
          "indexed": true,
          "internalType": "uint256",
          "name": "tokenId",
          "type": "uint256"
        }
      ],
      "name": "Approval",
      "type": "event"
    },
    {
      "anonymous": false,
      "inputs": [
        {
          "indexed": true,
          "internalType": "address",
          "name": "owner",
          "type": "address"
        },
        {
          "indexed": true,
          "internalType": "address",
          "name": "operator",
          "type": "address"
        },
        {
          "indexed": false,
          "internalType": "bool",
          "name": "approved",
          "type": "bool"
        }
      ],
      "name": "ApprovalForAll",
      "type": "event"
    },
    {
      "anonymous": false,
      "inputs": [
        {
          "indexed": true,
          "internalType": "address",
          "name": "from",
          "type": "address"
        },
        {
          "indexed": true,
          "internalType": "address",
          "name": "to",
          "type": "address"
        },
        {
          "indexed": true,
          "internalType": "uint256",
          "name": "tokenId",
          "type": "uint256"
        }
      ],
      "name": "Transfer",
      "type": "event"
    },
    {
      "inputs": [
        {
          "internalType": "address",
          "name": "to",
          "type": "address"
        },
        {
          "internalType": "uint256",
          "name": "tokenId",
          "type": "uint256"
        }
      ],
      "name": "approve",
      "outputs": [],
      "stateMutability": "nonpayable",
      "type": "function"
    },
    {
      "inputs": [
        {
          "internalType": "address",
          "name": "owner",
          "type": "address"
        }
      ],
      "name": "balanceOf",
      "outputs": [
        {
          "internalType": "uint256",
          "name": "",
          "type": "uint256"
        }
      ],
      "stateMutability": "view",
      "type": "function"
    },
    {
      "inputs": [
        {
          "internalType": "uint256",
          "name": "tokenId",
          "type": "uint256"
        }
      ],
      "name": "generateCharacter",
      "outputs": [
        {
          "internalType": "string",
          "name": "",
          "type": "string"
        }
      ],
      "stateMutability": "nonpayable",
      "type": "function"
    },
    {
      "inputs": [
        {
          "internalType": "uint256",
          "name": "tokenId",
          "type": "uint256"
        }
      ],
      "name": "getApproved",
      "outputs": [
        {
          "internalType": "address",
          "name": "",
          "type": "address"
        }
      ],
      "stateMutability": "view",
      "type": "function"
    },
    {
      "inputs": [
        {
          "internalType": "uint256",
          "name": "tokenId",
          "type": "uint256"
        }
      ],
      "name": "getLevels",
      "outputs": [
        {
          "internalType": "string",
          "name": "",
          "type": "string"
        }
      ],
      "stateMutability": "view",
      "type": "function"
    },
    {
      "inputs": [
        {
          "internalType": "uint256",
          "name": "tokenId",
          "type": "uint256"
        }
      ],
      "name": "getTokenURI",
      "outputs": [
        {
          "internalType": "string",
          "name": "",
          "type": "string"
        }
      ],
      "stateMutability": "nonpayable",
      "type": "function"
    },
    {
      "inputs": [
        {
          "internalType": "address",
          "name": "owner",
          "type": "address"
        },
        {
          "internalType": "address",
          "name": "operator",
          "type": "address"
        }
      ],
      "name": "isApprovedForAll",
      "outputs": [
        {
          "internalType": "bool",
          "name": "",
          "type": "bool"
        }
      ],
      "stateMutability": "view",
      "type": "function"
    },
    {
      "inputs": [],
      "name": "mint",
      "outputs": [],
      "stateMutability": "nonpayable",
      "type": "function"
    },
    {
      "inputs": [],
      "name": "name",
      "outputs": [
        {
          "internalType": "string",
          "name": "",
          "type": "string"
        }
      ],
      "stateMutability": "view",
      "type": "function"
    },
    {
      "inputs": [
        {
          "internalType": "uint256",
          "name": "tokenId",
          "type": "uint256"
        }
      ],
      "name": "ownerOf",
      "outputs": [
        {
          "internalType": "address",
          "name": "",
          "type": "address"
        }
      ],
      "stateMutability": "view",
      "type": "function"
    },
    {
      "inputs": [
        {
          "internalType": "address",
          "name": "from",
          "type": "address"
        },
        {
          "internalType": "address",
          "name": "to",
          "type": "address"
        },
        {
          "internalType": "uint256",
          "name": "tokenId",
          "type": "uint256"
        }
      ],
      "name": "safeTransferFrom",
      "outputs": [],
      "stateMutability": "nonpayable",
      "type": "function"
    },
    {
      "inputs": [
        {
          "internalType": "address",
          "name": "from",
          "type": "address"
        },
        {
          "internalType": "address",
          "name": "to",
          "type": "address"
        },
        {
          "internalType": "uint256",
          "name": "tokenId",
          "type": "uint256"
        },
        {
          "internalType": "bytes",
          "name": "data",
          "type": "bytes"
        }
      ],
      "name": "safeTransferFrom",
      "outputs": [],
      "stateMutability": "nonpayable",
      "type": "function"
    },
    {
      "inputs": [
        {
          "internalType": "address",
          "name": "operator",
          "type": "address"
        },
        {
          "internalType": "bool",
          "name": "approved",
          "type": "bool"
        }
      ],
      "name": "setApprovalForAll",
      "outputs": [],
      "stateMutability": "nonpayable",
      "type": "function"
    },
    {
      "inputs": [
        {
          "internalType": "bytes4",
          "name": "interfaceId",
          "type": "bytes4"
        }
      ],
      "name": "supportsInterface",
      "outputs": [
        {
          "internalType": "bool",
          "name": "",
          "type": "bool"
        }
      ],
      "stateMutability": "view",
      "type": "function"
    },
    {
      "inputs": [],
      "name": "symbol",
      "outputs": [
        {
          "internalType": "string",
          "name": "",
          "type": "string"
        }
      ],
      "stateMutability": "view",
      "type": "function"
    },
    {
      "inputs": [
        {
          "internalType": "uint256",
          "name": "",
          "type": "uint256"
        }
      ],
      "name": "tokenIdToLevels",
      "outputs": [
        {
          "internalType": "uint256",
          "name": "",
          "type": "uint256"
        }
      ],
      "stateMutability": "view",
      "type": "function"
    },
    {
      "inputs": [
        {
          "internalType": "uint256",
          "name": "tokenId",
          "type": "uint256"
        }
      ],
      "name": "tokenURI",
      "outputs": [
        {
          "internalType": "string",
          "name": "",
          "type": "string"
        }
      ],
      "stateMutability": "view",
      "type": "function"
    },
    {
      "inputs": [
        {
          "internalType": "uint256",
          "name": "tokenId",
          "type": "uint256"
        }
      ],
      "name": "train",
      "outputs": [],
      "stateMutability": "nonpayable",
      "type": "function"
    },
    {
      "inputs": [
        {
          "internalType": "address",
          "name": "from",
          "type": "address"
        },
        {
          "internalType": "address",
          "name": "to",
          "type": "address"
        },
        {
          "internalType": "uint256",
          "name": "tokenId",
          "type": "uint256"
        }
      ],
      "name": "transferFrom",
      "outputs": [],
      "stateMutability": "nonpayable",
      "type": "function"
    }
  ],
  "bytecode": "0x60806040523480156200001157600080fd5b506040518060400160405280600d81526020017f436861696e20426174746c6573000000000000000000000000000000000000008152506040518060400160405280600581526020017f4342544c53000000000000000000000000000000000000000000000000000000815250816000908051906020019062000096929190620000b8565b508060019080519060200190620000af929190620000b8565b505050620001cd565b828054620000c69062000197565b90600052602060002090601f016020900481019282620000ea576000855562000136565b82601f106200010557805160ff191683800117855562000136565b8280016001018555821562000136579182015b828111156200013557825182559160200191906001019062000118565b5b50905062000145919062000149565b5090565b5b80821115620001645760008160009055506001016200014a565b5090565b7f4e487b7100000000000000000000000000000000000000000000000000000000600052602260045260246000fd5b60006002820490506001821680620001b057607f821691505b60208210811415620001c757620001c662000168565b5b50919050565b6135fe80620001dd6000396000f3fe608060405234801561001057600080fd5b50600436106101215760003560e01c806342842e0e116100ad578063b88d4fde11610071578063b88d4fde14610318578063c6a4342f14610334578063c87b56dd14610364578063e985e9c514610394578063f43785f9146103c457610121565b806342842e0e146102625780636352211e1461027e57806370a08231146102ae57806395d89b41146102de578063a22cb465146102fc57610121565b80630daefed5116100f45780630daefed5146101c05780631249c58b146101f057806323b872dd146101fa578063368004ed146102165780633bb3a24d1461023257610121565b806301ffc9a71461012657806306fdde0314610156578063081812fc14610174578063095ea7b3146101a4575b600080fd5b610140600480360381019061013b9190611d25565b6103f4565b60405161014d9190611d6d565b60405180910390f35b61015e6104d6565b60405161016b9190611e21565b60405180910390f35b61018e60048036038101906101899190611e79565b610568565b60405161019b9190611ee7565b60405180910390f35b6101be60048036038101906101b99190611f2e565b6105ae565b005b6101da60048036038101906101d59190611e79565b6106c6565b6040516101e79190611e21565b60405180910390f35b6101f8610724565b005b610214600480360381019061020f9190611f6e565b610774565b005b610230600480360381019061022b9190611e79565b6107d4565b005b61024c60048036038101906102479190611e79565b6108a5565b6040516102599190611e21565b60405180910390f35b61027c60048036038101906102779190611f6e565b61090d565b005b61029860048036038101906102939190611e79565b61092d565b6040516102a59190611ee7565b60405180910390f35b6102c860048036038101906102c39190611fc1565b6109df565b6040516102d59190611ffd565b60405180910390f35b6102e6610a97565b6040516102f39190611e21565b60405180910390f35b61031660048036038101906103119190612044565b610b29565b005b610332600480360381019061032d91906121b9565b610b3f565b005b61034e60048036038101906103499190611e79565b610ba1565b60405161035b9190611ffd565b60405180910390f35b61037e60048036038101906103799190611e79565b610bb9565b60405161038b9190611e21565b60405180910390f35b6103ae60048036038101906103a9919061223c565b610ccc565b6040516103bb9190611d6d565b60405180910390f35b6103de60048036038101906103d99190611e79565b610d60565b6040516103eb9190611e21565b60405180910390f35b60007f80ac58cd000000000000000000000000000000000000000000000000000000007bffffffffffffffffffffffffffffffffffffffffffffffffffffffff1916827bffffffffffffffffffffffffffffffffffffffffffffffffffffffff191614806104bf57507f5b5e139f000000000000000000000000000000000000000000000000000000007bffffffffffffffffffffffffffffffffffffffffffffffffffffffff1916827bffffffffffffffffffffffffffffffffffffffffffffffffffffffff1916145b806104cf57506104ce82610d8b565b5b9050919050565b6060600080546104e5906122ab565b80601f0160208091040260200160405190810160405280929190818152602001828054610511906122ab565b801561055e5780601f106105335761010080835404028352916020019161055e565b820191906000526020600020905b81548152906001019060200180831161054157829003601f168201915b5050505050905090565b600061057382610df5565b6004600083815260200190815260200160002060009054906101000a900473ffffffffffffffffffffffffffffffffffffffff169050919050565b60006105b98261092d565b90508073ffffffffffffffffffffffffffffffffffffffff168373ffffffffffffffffffffffffffffffffffffffff16141561062a576040517f08c379a00000000000000000000000000000000000000000000000000000000081526004016106219061234f565b60405180910390fd5b8073ffffffffffffffffffffffffffffffffffffffff16610649610e40565b73ffffffffffffffffffffffffffffffffffffffff161480610678575061067781610672610e40565b610ccc565b5b6106b7576040517f08c379a00000000000000000000000000000000000000000000000000000000081526004016106ae906123e1565b60405180910390fd5b6106c18383610e48565b505050565b606060006106d383610d60565b6040516020016106e39190612865565b60405160208183030381529060405290506106fd81610f01565b60405160200161070d9190612936565b604051602081830303815290604052915050919050565b61072e6007611065565b600061073a600761107b565b90506107463382611089565b600060086000838152602001908152602001600020819055506107718161076c836108a5565b6110a7565b50565b61078561077f610e40565b8261111b565b6107c4576040517f08c379a00000000000000000000000000000000000000000000000000000000081526004016107bb906129ca565b60405180910390fd5b6107cf8383836111b0565b505050565b6107dd81611417565b61081c576040517f08c379a000000000000000000000000000000000000000000000000000000000815260040161081390612a36565b60405180910390fd5b610826338261111b565b610865576040517f08c379a000000000000000000000000000000000000000000000000000000000815260040161085c90612aa2565b60405180910390fd5b60016008600083815260200190815260200160002060008282546108899190612af1565b925050819055506108a28161089d836108a5565b6110a7565b50565b606060006108b283611483565b6108bb846106c6565b6040516020016108cc929190612d81565b60405160208183030381529060405290506108e681610f01565b6040516020016108f69190612e3e565b604051602081830303815290604052915050919050565b61092883838360405180602001604052806000815250610b3f565b505050565b6000806002600084815260200190815260200160002060009054906101000a900473ffffffffffffffffffffffffffffffffffffffff169050600073ffffffffffffffffffffffffffffffffffffffff168173ffffffffffffffffffffffffffffffffffffffff1614156109d6576040517f08c379a00000000000000000000000000000000000000000000000000000000081526004016109cd90612eac565b60405180910390fd5b80915050919050565b60008073ffffffffffffffffffffffffffffffffffffffff168273ffffffffffffffffffffffffffffffffffffffff161415610a50576040517f08c379a0000000000000000000000000000000000000000000000000000000008152600401610a4790612f3e565b60405180910390fd5b600360008373ffffffffffffffffffffffffffffffffffffffff1673ffffffffffffffffffffffffffffffffffffffff168152602001908152602001600020549050919050565b606060018054610aa6906122ab565b80601f0160208091040260200160405190810160405280929190818152602001828054610ad2906122ab565b8015610b1f5780601f10610af457610100808354040283529160200191610b1f565b820191906000526020600020905b815481529060010190602001808311610b0257829003601f168201915b5050505050905090565b610b3b610b34610e40565b83836115e4565b5050565b610b50610b4a610e40565b8361111b565b610b8f576040517f08c379a0000000000000000000000000000000000000000000000000000000008152600401610b86906129ca565b60405180910390fd5b610b9b84848484611751565b50505050565b60086020528060005260406000206000915090505481565b6060610bc482610df5565b6000600660008481526020019081526020016000208054610be4906122ab565b80601f0160208091040260200160405190810160405280929190818152602001828054610c10906122ab565b8015610c5d5780601f10610c3257610100808354040283529160200191610c5d565b820191906000526020600020905b815481529060010190602001808311610c4057829003601f168201915b505050505090506000610c6e6117ad565b9050600081511415610c84578192505050610cc7565b600082511115610cb9578082604051602001610ca1929190612f5e565b60405160208183030381529060405292505050610cc7565b610cc2846117c4565b925050505b919050565b6000600560008473ffffffffffffffffffffffffffffffffffffffff1673ffffffffffffffffffffffffffffffffffffffff16815260200190815260200160002060008373ffffffffffffffffffffffffffffffffffffffff1673ffffffffffffffffffffffffffffffffffffffff16815260200190815260200160002060009054906101000a900460ff16905092915050565b6060600060086000848152602001908152602001600020549050610d8381611483565b915050919050565b60007f01ffc9a7000000000000000000000000000000000000000000000000000000007bffffffffffffffffffffffffffffffffffffffffffffffffffffffff1916827bffffffffffffffffffffffffffffffffffffffffffffffffffffffff1916149050919050565b610dfe81611417565b610e3d576040517f08c379a0000000000000000000000000000000000000000000000000000000008152600401610e3490612eac565b60405180910390fd5b50565b600033905090565b816004600083815260200190815260200160002060006101000a81548173ffffffffffffffffffffffffffffffffffffffff021916908373ffffffffffffffffffffffffffffffffffffffff160217905550808273ffffffffffffffffffffffffffffffffffffffff16610ebb8361092d565b73ffffffffffffffffffffffffffffffffffffffff167f8c5be1e5ebec7d5bd14f71427d1e84f3dd0314c0f7b2291e5b200ac8c7c3b92560405160405180910390a45050565b6060600082511415610f2457604051806020016040528060008152509050611060565b60006040518060600160405280604081526020016135896040913990506000600360028551610f539190612af1565b610f5d9190612fb1565b6004610f699190612fe2565b67ffffffffffffffff811115610f8257610f8161208e565b5b6040519080825280601f01601f191660200182016040528015610fb45781602001600182028036833780820191505090505b509050600182016020820185865187015b80821015611020576003820191508151603f8160121c168501518453600184019350603f81600c1c168501518453600184019350603f8160061c168501518453600184019350603f8116850151845360018401935050610fc5565b505060038651066001811461103c576002811461104f57611057565b603d6001830353603d6002830353611057565b603d60018303535b50505080925050505b919050565b6001816000016000828254019250508190555050565b600081600001549050919050565b6110a382826040518060200160405280600081525061182c565b5050565b6110b082611417565b6110ef576040517f08c379a00000000000000000000000000000000000000000000000000000000081526004016110e6906130ae565b60405180910390fd5b80600660008481526020019081526020016000209080519060200190611116929190611c16565b505050565b6000806111278361092d565b90508073ffffffffffffffffffffffffffffffffffffffff168473ffffffffffffffffffffffffffffffffffffffff16148061116957506111688185610ccc565b5b806111a757508373ffffffffffffffffffffffffffffffffffffffff1661118f84610568565b73ffffffffffffffffffffffffffffffffffffffff16145b91505092915050565b8273ffffffffffffffffffffffffffffffffffffffff166111d08261092d565b73ffffffffffffffffffffffffffffffffffffffff1614611226576040517f08c379a000000000000000000000000000000000000000000000000000000000815260040161121d90613140565b60405180910390fd5b600073ffffffffffffffffffffffffffffffffffffffff168273ffffffffffffffffffffffffffffffffffffffff161415611296576040517f08c379a000000000000000000000000000000000000000000000000000000000815260040161128d906131d2565b60405180910390fd5b6112a1838383611887565b6112ac600082610e48565b6001600360008573ffffffffffffffffffffffffffffffffffffffff1673ffffffffffffffffffffffffffffffffffffffff16815260200190815260200160002060008282546112fc91906131f2565b925050819055506001600360008473ffffffffffffffffffffffffffffffffffffffff1673ffffffffffffffffffffffffffffffffffffffff16815260200190815260200160002060008282546113539190612af1565b92505081905550816002600083815260200190815260200160002060006101000a81548173ffffffffffffffffffffffffffffffffffffffff021916908373ffffffffffffffffffffffffffffffffffffffff160217905550808273ffffffffffffffffffffffffffffffffffffffff168473ffffffffffffffffffffffffffffffffffffffff167fddf252ad1be2c89b69c2b068fc378daa952ba7f163c4a11628f55a4df523b3ef60405160405180910390a461141283838361188c565b505050565b60008073ffffffffffffffffffffffffffffffffffffffff166002600084815260200190815260200160002060009054906101000a900473ffffffffffffffffffffffffffffffffffffffff1673ffffffffffffffffffffffffffffffffffffffff1614159050919050565b606060008214156114cb576040518060400160405280600181526020017f300000000000000000000000000000000000000000000000000000000000000081525090506115df565b600082905060005b600082146114fd5780806114e690613226565b915050600a826114f69190612fb1565b91506114d3565b60008167ffffffffffffffff8111156115195761151861208e565b5b6040519080825280601f01601f19166020018201604052801561154b5781602001600182028036833780820191505090505b5090505b600085146115d85760018261156491906131f2565b9150600a85611573919061326f565b603061157f9190612af1565b60f81b818381518110611595576115946132a0565b5b60200101907effffffffffffffffffffffffffffffffffffffffffffffffffffffffffffff1916908160001a905350600a856115d19190612fb1565b945061154f565b8093505050505b919050565b8173ffffffffffffffffffffffffffffffffffffffff168373ffffffffffffffffffffffffffffffffffffffff161415611653576040517f08c379a000000000000000000000000000000000000000000000000000000000815260040161164a9061331b565b60405180910390fd5b80600560008573ffffffffffffffffffffffffffffffffffffffff1673ffffffffffffffffffffffffffffffffffffffff16815260200190815260200160002060008473ffffffffffffffffffffffffffffffffffffffff1673ffffffffffffffffffffffffffffffffffffffff16815260200190815260200160002060006101000a81548160ff0219169083151502179055508173ffffffffffffffffffffffffffffffffffffffff168373ffffffffffffffffffffffffffffffffffffffff167f17307eab39ab6107e8899845ad3d59bd9653f200f220920489ca2b5937696c31836040516117449190611d6d565b60405180910390a3505050565b61175c8484846111b0565b61176884848484611891565b6117a7576040517f08c379a000000000000000000000000000000000000000000000000000000000815260040161179e906133ad565b60405180910390fd5b50505050565b606060405180602001604052806000815250905090565b60606117cf82610df5565b60006117d96117ad565b905060008151116117f95760405180602001604052806000815250611824565b8061180384611483565b604051602001611814929190612f5e565b6040516020818303038152906040525b915050919050565b6118368383611a19565b6118436000848484611891565b611882576040517f08c379a0000000000000000000000000000000000000000000000000000000008152600401611879906133ad565b60405180910390fd5b505050565b505050565b505050565b60006118b28473ffffffffffffffffffffffffffffffffffffffff16611bf3565b15611a0c578373ffffffffffffffffffffffffffffffffffffffff1663150b7a026118db610e40565b8786866040518563ffffffff1660e01b81526004016118fd9493929190613422565b6020604051808303816000875af192505050801561193957506040513d601f19601f820116820180604052508101906119369190613483565b60015b6119bc573d8060008114611969576040519150601f19603f3d011682016040523d82523d6000602084013e61196e565b606091505b506000815114156119b4576040517f08c379a00000000000000000000000000000000000000000000000000000000081526004016119ab906133ad565b60405180910390fd5b805181602001fd5b63150b7a0260e01b7bffffffffffffffffffffffffffffffffffffffffffffffffffffffff1916817bffffffffffffffffffffffffffffffffffffffffffffffffffffffff191614915050611a11565b600190505b949350505050565b600073ffffffffffffffffffffffffffffffffffffffff168273ffffffffffffffffffffffffffffffffffffffff161415611a89576040517f08c379a0000000000000000000000000000000000000000000000000000000008152600401611a80906134fc565b60405180910390fd5b611a9281611417565b15611ad2576040517f08c379a0000000000000000000000000000000000000000000000000000000008152600401611ac990613568565b60405180910390fd5b611ade60008383611887565b6001600360008473ffffffffffffffffffffffffffffffffffffffff1673ffffffffffffffffffffffffffffffffffffffff1681526020019081526020016000206000828254611b2e9190612af1565b92505081905550816002600083815260200190815260200160002060006101000a81548173ffffffffffffffffffffffffffffffffffffffff021916908373ffffffffffffffffffffffffffffffffffffffff160217905550808273ffffffffffffffffffffffffffffffffffffffff16600073ffffffffffffffffffffffffffffffffffffffff167fddf252ad1be2c89b69c2b068fc378daa952ba7f163c4a11628f55a4df523b3ef60405160405180910390a4611bef6000838361188c565b5050565b6000808273ffffffffffffffffffffffffffffffffffffffff163b119050919050565b828054611c22906122ab565b90600052602060002090601f016020900481019282611c445760008555611c8b565b82601f10611c5d57805160ff1916838001178555611c8b565b82800160010185558215611c8b579182015b82811115611c8a578251825591602001919060010190611c6f565b5b509050611c989190611c9c565b5090565b5b80821115611cb5576000816000905550600101611c9d565b5090565b6000604051905090565b600080fd5b600080fd5b60007fffffffff0000000000000000000000000000000000000000000000000000000082169050919050565b611d0281611ccd565b8114611d0d57600080fd5b50565b600081359050611d1f81611cf9565b92915050565b600060208284031215611d3b57611d3a611cc3565b5b6000611d4984828501611d10565b91505092915050565b60008115159050919050565b611d6781611d52565b82525050565b6000602082019050611d826000830184611d5e565b92915050565b600081519050919050565b600082825260208201905092915050565b60005b83811015611dc2578082015181840152602081019050611da7565b83811115611dd1576000848401525b50505050565b6000601f19601f8301169050919050565b6000611df382611d88565b611dfd8185611d93565b9350611e0d818560208601611da4565b611e1681611dd7565b840191505092915050565b60006020820190508181036000830152611e3b8184611de8565b905092915050565b6000819050919050565b611e5681611e43565b8114611e6157600080fd5b50565b600081359050611e7381611e4d565b92915050565b600060208284031215611e8f57611e8e611cc3565b5b6000611e9d84828501611e64565b91505092915050565b600073ffffffffffffffffffffffffffffffffffffffff82169050919050565b6000611ed182611ea6565b9050919050565b611ee181611ec6565b82525050565b6000602082019050611efc6000830184611ed8565b92915050565b611f0b81611ec6565b8114611f1657600080fd5b50565b600081359050611f2881611f02565b92915050565b60008060408385031215611f4557611f44611cc3565b5b6000611f5385828601611f19565b9250506020611f6485828601611e64565b9150509250929050565b600080600060608486031215611f8757611f86611cc3565b5b6000611f9586828701611f19565b9350506020611fa686828701611f19565b9250506040611fb786828701611e64565b9150509250925092565b600060208284031215611fd757611fd6611cc3565b5b6000611fe584828501611f19565b91505092915050565b611ff781611e43565b82525050565b60006020820190506120126000830184611fee565b92915050565b61202181611d52565b811461202c57600080fd5b50565b60008135905061203e81612018565b92915050565b6000806040838503121561205b5761205a611cc3565b5b600061206985828601611f19565b925050602061207a8582860161202f565b9150509250929050565b600080fd5b600080fd5b7f4e487b7100000000000000000000000000000000000000000000000000000000600052604160045260246000fd5b6120c682611dd7565b810181811067ffffffffffffffff821117156120e5576120e461208e565b5b80604052505050565b60006120f8611cb9565b905061210482826120bd565b919050565b600067ffffffffffffffff8211156121245761212361208e565b5b61212d82611dd7565b9050602081019050919050565b82818337600083830152505050565b600061215c61215784612109565b6120ee565b90508281526020810184848401111561217857612177612089565b5b61218384828561213a565b509392505050565b600082601f8301126121a05761219f612084565b5b81356121b0848260208601612149565b91505092915050565b600080600080608085870312156121d3576121d2611cc3565b5b60006121e187828801611f19565b94505060206121f287828801611f19565b935050604061220387828801611e64565b925050606085013567ffffffffffffffff81111561222457612223611cc8565b5b6122308782880161218b565b91505092959194509250565b6000806040838503121561225357612252611cc3565b5b600061226185828601611f19565b925050602061227285828601611f19565b9150509250929050565b7f4e487b7100000000000000000000000000000000000000000000000000000000600052602260045260246000fd5b600060028204905060018216806122c357607f821691505b602082108114156122d7576122d661227c565b5b50919050565b7f4552433732313a20617070726f76616c20746f2063757272656e74206f776e6560008201527f7200000000000000000000000000000000000000000000000000000000000000602082015250565b6000612339602183611d93565b9150612344826122dd565b604082019050919050565b600060208201905081810360008301526123688161232c565b9050919050565b7f4552433732313a20617070726f76652063616c6c6572206973206e6f7420746f60008201527f6b656e206f776e6572206e6f7220617070726f76656420666f7220616c6c0000602082015250565b60006123cb603e83611d93565b91506123d68261236f565b604082019050919050565b600060208201905081810360008301526123fa816123be565b9050919050565b600081905092915050565b7f3c73766720786d6c6e733d22687474703a2f2f7777772e77332e6f72672f323060008201527f30302f73766722207072657365727665417370656374526174696f3d22784d6960208201527f6e594d696e206d656574222076696577426f783d22302030203335302033353060408201527f223e000000000000000000000000000000000000000000000000000000000000606082015250565b60006124b4606283612401565b91506124bf8261240c565b606282019050919050565b7f3c7374796c653e2e62617365207b2066696c6c3a2077686974653b20666f6e7460008201527f2d66616d696c793a2073657269663b20666f6e742d73697a653a20313470783b60208201527f207d3c2f7374796c653e00000000000000000000000000000000000000000000604082015250565b600061254c604a83612401565b9150612557826124ca565b604a82019050919050565b7f3c726563742077696474683d223130302522206865696768743d22313030252260008201527f2066696c6c3d22626c61636b22202f3e00000000000000000000000000000000602082015250565b60006125be603083612401565b91506125c982612562565b603082019050919050565b7f3c7465787420783d223530252220793d223430252220636c6173733d2262617360008201527f652220646f6d696e616e742d626173656c696e653d226d6964646c652220746560208201527f78742d616e63686f723d226d6964646c65223e00000000000000000000000000604082015250565b6000612656605383612401565b9150612661826125d4565b605382019050919050565b7f57617272696f7200000000000000000000000000000000000000000000000000600082015250565b60006126a2600783612401565b91506126ad8261266c565b600782019050919050565b7f3c2f746578743e00000000000000000000000000000000000000000000000000600082015250565b60006126ee600783612401565b91506126f9826126b8565b600782019050919050565b7f3c7465787420783d223530252220793d223530252220636c6173733d2262617360008201527f652220646f6d696e616e742d626173656c696e653d226d6964646c652220746560208201527f78742d616e63686f723d226d6964646c65223e00000000000000000000000000604082015250565b6000612786605383612401565b915061279182612704565b605382019050919050565b7f4c6576656c733a20000000000000000000000000000000000000000000000000600082015250565b60006127d2600883612401565b91506127dd8261279c565b600882019050919050565b60006127f382611d88565b6127fd8185612401565b935061280d818560208601611da4565b80840191505092915050565b7f3c2f7376673e0000000000000000000000000000000000000000000000000000600082015250565b600061284f600683612401565b915061285a82612819565b600682019050919050565b6000612870826124a7565b915061287b8261253f565b9150612886826125b1565b915061289182612649565b915061289c82612695565b91506128a7826126e1565b91506128b282612779565b91506128bd826127c5565b91506128c982846127e8565b91506128d4826126e1565b91506128df82612842565b915081905092915050565b7f646174613a696d6167652f7376672b786d6c3b6261736536342c000000000000600082015250565b6000612920601a83612401565b915061292b826128ea565b601a82019050919050565b600061294182612913565b915061294d82846127e8565b915081905092915050565b7f4552433732313a2063616c6c6572206973206e6f7420746f6b656e206f776e6560008201527f72206e6f7220617070726f766564000000000000000000000000000000000000602082015250565b60006129b4602e83611d93565b91506129bf82612958565b604082019050919050565b600060208201905081810360008301526129e3816129a7565b9050919050565b7f54686520746f6b656e496420646f6573206e6f74206578697374000000000000600082015250565b6000612a20601a83611d93565b9150612a2b826129ea565b602082019050919050565b60006020820190508181036000830152612a4f81612a13565b9050919050565b7f596f7520617265206e6f7420746865206f776e6572206f6620746865204e4654600082015250565b6000612a8c602083611d93565b9150612a9782612a56565b602082019050919050565b60006020820190508181036000830152612abb81612a7f565b9050919050565b7f4e487b7100000000000000000000000000000000000000000000000000000000600052601160045260246000fd5b6000612afc82611e43565b9150612b0783611e43565b9250827fffffffffffffffffffffffffffffffffffffffffffffffffffffffffffffffff03821115612b3c57612b3b612ac2565b5b828201905092915050565b7f7b00000000000000000000000000000000000000000000000000000000000000600082015250565b6000612b7d600183612401565b9150612b8882612b47565b600182019050919050565b7f226e616d65223a2022436861696e20426174746c657320230000000000000000600082015250565b6000612bc9601883612401565b9150612bd482612b93565b601882019050919050565b7f222c000000000000000000000000000000000000000000000000000000000000600082015250565b6000612c15600283612401565b9150612c2082612bdf565b600282019050919050565b7f226465736372697074696f6e223a2022426174746c6573206f6e20636861696e60008201527f222c000000000000000000000000000000000000000000000000000000000000602082015250565b6000612c87602283612401565b9150612c9282612c2b565b602282019050919050565b7f22696d616765223a202200000000000000000000000000000000000000000000600082015250565b6000612cd3600a83612401565b9150612cde82612c9d565b600a82019050919050565b7f2200000000000000000000000000000000000000000000000000000000000000600082015250565b6000612d1f600183612401565b9150612d2a82612ce9565b600182019050919050565b7f7d00000000000000000000000000000000000000000000000000000000000000600082015250565b6000612d6b600183612401565b9150612d7682612d35565b600182019050919050565b6000612d8c82612b70565b9150612d9782612bbc565b9150612da382856127e8565b9150612dae82612c08565b9150612db982612c7a565b9150612dc482612cc6565b9150612dd082846127e8565b9150612ddb82612d12565b9150612de682612d5e565b91508190509392505050565b7f646174613a6170706c69636174696f6e2f6a736f6e3b6261736536342c000000600082015250565b6000612e28601d83612401565b9150612e3382612df2565b601d82019050919050565b6000612e4982612e1b565b9150612e5582846127e8565b915081905092915050565b7f4552433732313a20696e76616c696420746f6b656e2049440000000000000000600082015250565b6000612e96601883611d93565b9150612ea182612e60565b602082019050919050565b60006020820190508181036000830152612ec581612e89565b9050919050565b7f4552433732313a2061646472657373207a65726f206973206e6f74206120766160008201527f6c6964206f776e65720000000000000000000000000000000000000000000000602082015250565b6000612f28602983611d93565b9150612f3382612ecc565b604082019050919050565b60006020820190508181036000830152612f5781612f1b565b9050919050565b6000612f6a82856127e8565b9150612f7682846127e8565b91508190509392505050565b7f4e487b7100000000000000000000000000000000000000000000000000000000600052601260045260246000fd5b6000612fbc82611e43565b9150612fc783611e43565b925082612fd757612fd6612f82565b5b828204905092915050565b6000612fed82611e43565b9150612ff883611e43565b9250817fffffffffffffffffffffffffffffffffffffffffffffffffffffffffffffffff048311821515161561303157613030612ac2565b5b828202905092915050565b7f45524337323155524953746f726167653a2055524920736574206f66206e6f6e60008201527f6578697374656e7420746f6b656e000000000000000000000000000000000000602082015250565b6000613098602e83611d93565b91506130a38261303c565b604082019050919050565b600060208201905081810360008301526130c78161308b565b9050919050565b7f4552433732313a207472616e736665722066726f6d20696e636f72726563742060008201527f6f776e6572000000000000000000000000000000000000000000000000000000602082015250565b600061312a602583611d93565b9150613135826130ce565b604082019050919050565b600060208201905081810360008301526131598161311d565b9050919050565b7f4552433732313a207472616e7366657220746f20746865207a65726f2061646460008201527f7265737300000000000000000000000000000000000000000000000000000000602082015250565b60006131bc602483611d93565b91506131c782613160565b604082019050919050565b600060208201905081810360008301526131eb816131af565b9050919050565b60006131fd82611e43565b915061320883611e43565b92508282101561321b5761321a612ac2565b5b828203905092915050565b600061323182611e43565b91507fffffffffffffffffffffffffffffffffffffffffffffffffffffffffffffffff82141561326457613263612ac2565b5b600182019050919050565b600061327a82611e43565b915061328583611e43565b92508261329557613294612f82565b5b828206905092915050565b7f4e487b7100000000000000000000000000000000000000000000000000000000600052603260045260246000fd5b7f4552433732313a20617070726f766520746f2063616c6c657200000000000000600082015250565b6000613305601983611d93565b9150613310826132cf565b602082019050919050565b60006020820190508181036000830152613334816132f8565b9050919050565b7f4552433732313a207472616e7366657220746f206e6f6e20455243373231526560008201527f63656976657220696d706c656d656e7465720000000000000000000000000000602082015250565b6000613397603283611d93565b91506133a28261333b565b604082019050919050565b600060208201905081810360008301526133c68161338a565b9050919050565b600081519050919050565b600082825260208201905092915050565b60006133f4826133cd565b6133fe81856133d8565b935061340e818560208601611da4565b61341781611dd7565b840191505092915050565b60006080820190506134376000830187611ed8565b6134446020830186611ed8565b6134516040830185611fee565b818103606083015261346381846133e9565b905095945050505050565b60008151905061347d81611cf9565b92915050565b60006020828403121561349957613498611cc3565b5b60006134a78482850161346e565b91505092915050565b7f4552433732313a206d696e7420746f20746865207a65726f2061646472657373600082015250565b60006134e6602083611d93565b91506134f1826134b0565b602082019050919050565b60006020820190508181036000830152613515816134d9565b9050919050565b7f4552433732313a20746f6b656e20616c7265616479206d696e74656400000000600082015250565b6000613552601c83611d93565b915061355d8261351c565b602082019050919050565b6000602082019050818103600083015261358181613545565b905091905056fe4142434445464748494a4b4c4d4e4f505152535455565758595a6162636465666768696a6b6c6d6e6f707172737475767778797a303132333435363738392b2fa2646970667358221220b08898f61f9c3bbf2088b707d53a96602a251e06b42fba9f65cdac661a4e5cc564736f6c634300080a0033",
  "linkReferences": {},
  "deployedLinkReferences": {}
}